{
  "transactions": [
    {
      "hash": "0x3fdfdf2c855bd828af7f13ae00fcdb91d70747363d022902f9d645d2582d96af",
      "transactionType": "CALL",
      "contractName": null,
      "contractAddress": "0xc07d0290997f5053923e17b03ab871e9575e5e36",
      "function": "send((uint32,bytes32,uint256,uint256,bytes,bytes,bytes),(uint256,uint256),address)",
      "arguments": [
        "(40161, 0x00000000000000000000000012b2434a1022d5787bf06056f2885fe35de62bf8, 10000000000000000000, 9000000000000000000, 0x0003010011010000000000000000000000000000fde8, 0x, 0x)",
        "(222022810906298, 0)",
        "0x12B2434a1022d5787bf06056F2885Fe35De62Bf8"
      ],
      "transaction": {
        "from": "0x12b2434a1022d5787bf06056f2885fe35de62bf8",
        "to": "0xc07d0290997f5053923e17b03ab871e9575e5e36",
        "gas": "0x5160d",
        "value": "0xc9edb6c6aeba",
        "input": "0xc7c7f5b300000000000000000000000000000000000000000000000000000000000000800000000000000000000000000000000000000000000000000000c9edb6c6aeba000000000000000000000000000000000000000000000000000000000000000000000000000000000000000012b2434a1022d5787bf06056f2885fe35de62bf80000000000000000000000000000000000000000000000000000000000009ce100000000000000000000000012b2434a1022d5787bf06056f2885fe35de62bf80000000000000000000000000000000000000000000000008ac7230489e800000000000000000000000000000000000000000000000000007ce66c50e284000000000000000000000000000000000000000000000000000000000000000000e00000000000000000000000000000000000000000000000000000000000000120000000000000000000000000000000000000000000000000000000000000014000000000000000000000000000000000000000000000000000000000000000160003010011010000000000000000000000000000fde80000000000000000000000000000000000000000000000000000000000000000000000000000000000000000000000000000000000000000000000000000000000000000000000000000",
        "nonce": "0x181",
        "chainId": "0x14a34"
      },
      "additionalContracts": [],
      "isFixedGasLimit": false
    }
  ],
  "receipts": [
    {
      "status": "0x1",
      "cumulativeGasUsed": "0xb05ca",
      "logs": [
        {
          "address": "0xc07d0290997f5053923e17b03ab871e9575e5e36",
          "topics": [
            "0xddf252ad1be2c89b69c2b068fc378daa952ba7f163c4a11628f55a4df523b3ef",
            "0x00000000000000000000000012b2434a1022d5787bf06056f2885fe35de62bf8",
            "0x0000000000000000000000000000000000000000000000000000000000000000"
          ],
          "data": "0x0000000000000000000000000000000000000000000000008ac7230489e80000",
          "blockHash": "0x22ffe88c8929fd37123c8a0526c75473c73ff8fad7e38da17971b493cb4a9f9e",
          "blockNumber": "0x1113e18",
          "transactionHash": "0x3fdfdf2c855bd828af7f13ae00fcdb91d70747363d022902f9d645d2582d96af",
          "transactionIndex": "0xb",
          "logIndex": "0x8",
          "removed": false
        },
        {
          "address": "0xc1868e054425d378095a003ecba3823a5d0135c9",
          "topics": [
            "0x61ed099e74a97a1d7f8bb0952a88ca8b7b8ebd00c126ea04671f92a81213318a"
          ],
          "data": "0x0000000000000000000000008a3d588d9f6ac041476b094f97ff94ec30169d3d000000000000000000000000000000000000000000000000000088dd8d54a494",
          "blockHash": "0x22ffe88c8929fd37123c8a0526c75473c73ff8fad7e38da17971b493cb4a9f9e",
          "blockNumber": "0x1113e18",
          "transactionHash": "0x3fdfdf2c855bd828af7f13ae00fcdb91d70747363d022902f9d645d2582d96af",
          "transactionIndex": "0xb",
          "logIndex": "0x9",
          "removed": false
        },
        {
          "address": "0xc1868e054425d378095a003ecba3823a5d0135c9",
          "topics": [
            "0x07ea52d82345d6e838192107d8fd7123d9c2ec8e916cd0aad13fd2b60db24644"
          ],
          "data": "0x000000000000000000000000000000000000000000000000000000000000006000000000000000000000000000000000000000000000000000000000000000a000000000000000000000000000000000000000000000000000000000000000c00000000000000000000000000000000000000000000000000000000000000001000000000000000000000000e1a12515f9ab2764b887bf60b923ca494ebbb2d6000000000000000000000000000000000000000000000000000000000000000000000000000000000000000000000000000000000000000000000000000000010000000000000000000000000000000000000000000000000000411029720a26",
          "blockHash": "0x22ffe88c8929fd37123c8a0526c75473c73ff8fad7e38da17971b493cb4a9f9e",
          "blockNumber": "0x1113e18",
          "transactionHash": "0x3fdfdf2c855bd828af7f13ae00fcdb91d70747363d022902f9d645d2582d96af",
          "transactionIndex": "0xb",
          "logIndex": "0xa",
          "removed": false
        },
        {
          "address": "0x6edce65403992e310a62460808c4b910d972f10f",
          "topics": [
            "0x1ab700d4ced0c005b164c0f789fd09fcbb0156d4c2041b8a3bfbcd961cd1567f"
          ],
          "data": "0x00000000000000000000000000000000000000000000000000000000000000600000000000000000000000000000000000000000000000000000000000000120000000000000000000000000c1868e054425d378095a003ecba3823a5d0135c9000000000000000000000000000000000000000000000000000000000000009901000000000000000300009d35000000000000000000000000c07d0290997f5053923e17b03ab871e9575e5e3600009ce1000000000000000000000000e7513d67011f19da77ee02aa4908cedba26ed7666bc43ab4250e772535aa75ad26d4c46f9e5b6fd05897c996658786d73c74b71700000000000000000000000012b2434a1022d5787bf06056f2885fe35de62bf800000000009896800000000000000000000000000000000000000000000000000000000000000000000000000000160003010011010000000000000000000000000000fde800000000000000000000",
          "blockHash": "0x22ffe88c8929fd37123c8a0526c75473c73ff8fad7e38da17971b493cb4a9f9e",
          "blockNumber": "0x1113e18",
          "transactionHash": "0x3fdfdf2c855bd828af7f13ae00fcdb91d70747363d022902f9d645d2582d96af",
          "transactionIndex": "0xb",
          "logIndex": "0xb",
          "removed": false
        },
        {
          "address": "0xc07d0290997f5053923e17b03ab871e9575e5e36",
          "topics": [
            "0x85496b760a4b7f8d66384b9df21b381f5d1b1e79f229a47aaf4c232edc2fe59a",
            "0x6bc43ab4250e772535aa75ad26d4c46f9e5b6fd05897c996658786d73c74b717",
            "0x00000000000000000000000012b2434a1022d5787bf06056f2885fe35de62bf8"
          ],
          "data": "0x0000000000000000000000000000000000000000000000000000000000009ce10000000000000000000000000000000000000000000000008ac7230489e800000000000000000000000000000000000000000000000000008ac7230489e80000",
          "blockHash": "0x22ffe88c8929fd37123c8a0526c75473c73ff8fad7e38da17971b493cb4a9f9e",
          "blockNumber": "0x1113e18",
          "transactionHash": "0x3fdfdf2c855bd828af7f13ae00fcdb91d70747363d022902f9d645d2582d96af",
          "transactionIndex": "0xb",
          "logIndex": "0xc",
          "removed": false
        }
      ],
      "logsBloom": "0x00000000000100000000000000000000000000000000000100000000000000000000000000000200200000000000000000000000000000000000000000000000000002000000000000000008200000000000000000000000000000020000000000000000020000008200000000000800000000000000000000000010000000000000000000000020000000280000000000000000000000000000000020000010000000008000000000100000000000000000000400404000000440001000000080000002000000000000000080000000000000000000000000000000000020000000040000000000000000000000002000000000008000000000000000000000",
      "type": "0x2",
      "transactionHash": "0x3fdfdf2c855bd828af7f13ae00fcdb91d70747363d022902f9d645d2582d96af",
      "transactionIndex": "0xb",
      "blockHash": "0x22ffe88c8929fd37123c8a0526c75473c73ff8fad7e38da17971b493cb4a9f9e",
      "blockNumber": "0x1113e18",
      "gasUsed": "0x37a4b",
      "effectiveGasPrice": "0xb1c99",
      "from": "0x12b2434a1022d5787bf06056f2885fe35de62bf8",
      "to": "0xc07d0290997f5053923e17b03ab871e9575e5e36",
      "contractAddress": null,
      "l1BaseFeeScalar": "0x44d",
      "l1BlobBaseFee": "0x1",
      "l1BlobBaseFeeScalar": "0xa118b",
      "l1Fee": "0x5e02f80b",
      "l1GasPrice": "0x1ef4d30f",
      "l1GasUsed": "0xac6"
    }
  ],
  "libraries": [],
  "pending": [],
  "returns": {},
  "timestamp": 1731582737,
  "chain": 84532,
  "commit": "5aade63"
}