{
  "transactions": [
    {
      "hash": "0x5a8bf1fa4f2d2956ff2d5cac5c8e7336b4364a8b91ff5dff30136123d84b3c98",
      "transactionType": "CALL",
      "contractName": null,
      "contractAddress": "0xc07d0290997f5053923e17b03ab871e9575e5e36",
      "function": "send((uint32,bytes32,uint256,uint256,bytes,bytes,bytes),(uint256,uint256),address)",
      "arguments": [
        "(40161, 0x00000000000000000000000012b2434a1022d5787bf06056f2885fe35de62bf8, 10000000000000000000, 9000000000000000000, 0x0003010011010000000000000000000000000000fde8, 0x, 0x)",
        "(506528249145316, 0)",
        "0x12B2434a1022d5787bf06056F2885Fe35De62Bf8"
      ],
      "transaction": {
        "from": "0x12b2434a1022d5787bf06056f2885fe35de62bf8",
        "to": "0xc07d0290997f5053923e17b03ab871e9575e5e36",
        "gas": "0x4cdc7",
        "value": "0x1ccaf4c5be7e4",
        "input": "0xc7c7f5b300000000000000000000000000000000000000000000000000000000000000800000000000000000000000000000000000000000000000000001ccaf4c5be7e4000000000000000000000000000000000000000000000000000000000000000000000000000000000000000012b2434a1022d5787bf06056f2885fe35de62bf80000000000000000000000000000000000000000000000000000000000009ce100000000000000000000000012b2434a1022d5787bf06056f2885fe35de62bf80000000000000000000000000000000000000000000000008ac7230489e800000000000000000000000000000000000000000000000000007ce66c50e284000000000000000000000000000000000000000000000000000000000000000000e00000000000000000000000000000000000000000000000000000000000000120000000000000000000000000000000000000000000000000000000000000014000000000000000000000000000000000000000000000000000000000000000160003010011010000000000000000000000000000fde80000000000000000000000000000000000000000000000000000000000000000000000000000000000000000000000000000000000000000000000000000000000000000000000000000",
        "nonce": "0x184",
        "chainId": "0x14a34"
      },
      "additionalContracts": [],
      "isFixedGasLimit": false
    }
  ],
  "receipts": [
    {
      "status": "0x1",
      "cumulativeGasUsed": "0x9971b",
      "logs": [
        {
          "address": "0xc07d0290997f5053923e17b03ab871e9575e5e36",
          "topics": [
            "0xddf252ad1be2c89b69c2b068fc378daa952ba7f163c4a11628f55a4df523b3ef",
            "0x00000000000000000000000012b2434a1022d5787bf06056f2885fe35de62bf8",
            "0x0000000000000000000000000000000000000000000000000000000000000000"
          ],
          "data": "0x0000000000000000000000000000000000000000000000008ac7230489e80000",
          "blockHash": "0x4c87374adcf59b59b54a9e75a078ca8cb18fdd6a34ca0edcc9b59ce91cd03983",
          "blockNumber": "0x1113fa8",
          "transactionHash": "0x5a8bf1fa4f2d2956ff2d5cac5c8e7336b4364a8b91ff5dff30136123d84b3c98",
          "transactionIndex": "0x7",
          "logIndex": "0x5",
          "removed": false
        },
        {
          "address": "0xc1868e054425d378095a003ecba3823a5d0135c9",
          "topics": [
            "0x61ed099e74a97a1d7f8bb0952a88ca8b7b8ebd00c126ea04671f92a81213318a"
          ],
          "data": "0x0000000000000000000000008a3d588d9f6ac041476b094f97ff94ec30169d3d00000000000000000000000000000000000000000000000000011a0362d12244",
          "blockHash": "0x4c87374adcf59b59b54a9e75a078ca8cb18fdd6a34ca0edcc9b59ce91cd03983",
          "blockNumber": "0x1113fa8",
          "transactionHash": "0x5a8bf1fa4f2d2956ff2d5cac5c8e7336b4364a8b91ff5dff30136123d84b3c98",
          "transactionIndex": "0x7",
          "logIndex": "0x6",
          "removed": false
        },
        {
          "address": "0xc1868e054425d378095a003ecba3823a5d0135c9",
          "topics": [
            "0x07ea52d82345d6e838192107d8fd7123d9c2ec8e916cd0aad13fd2b60db24644"
          ],
          "data": "0x000000000000000000000000000000000000000000000000000000000000006000000000000000000000000000000000000000000000000000000000000000a000000000000000000000000000000000000000000000000000000000000000c00000000000000000000000000000000000000000000000000000000000000001000000000000000000000000e1a12515f9ab2764b887bf60b923ca494ebbb2d6000000000000000000000000000000000000000000000000000000000000000000000000000000000000000000000000000000000000000000000000000000010000000000000000000000000000000000000000000000000000b2abe98ac5a0",
          "blockHash": "0x4c87374adcf59b59b54a9e75a078ca8cb18fdd6a34ca0edcc9b59ce91cd03983",
          "blockNumber": "0x1113fa8",
          "transactionHash": "0x5a8bf1fa4f2d2956ff2d5cac5c8e7336b4364a8b91ff5dff30136123d84b3c98",
          "transactionIndex": "0x7",
          "logIndex": "0x7",
          "removed": false
        },
        {
          "address": "0x6edce65403992e310a62460808c4b910d972f10f",
          "topics": [
            "0x1ab700d4ced0c005b164c0f789fd09fcbb0156d4c2041b8a3bfbcd961cd1567f"
          ],
          "data": "0x00000000000000000000000000000000000000000000000000000000000000600000000000000000000000000000000000000000000000000000000000000120000000000000000000000000c1868e054425d378095a003ecba3823a5d0135c9000000000000000000000000000000000000000000000000000000000000009901000000000000000400009d35000000000000000000000000c07d0290997f5053923e17b03ab871e9575e5e3600009ce1000000000000000000000000e7513d67011f19da77ee02aa4908cedba26ed76658bb9c5aaa264e773e6ccb0447c96f3ea9a7453583a1e907d285c53e87763c0e00000000000000000000000012b2434a1022d5787bf06056f2885fe35de62bf800000000009896800000000000000000000000000000000000000000000000000000000000000000000000000000160003010011010000000000000000000000000000fde800000000000000000000",
          "blockHash": "0x4c87374adcf59b59b54a9e75a078ca8cb18fdd6a34ca0edcc9b59ce91cd03983",
          "blockNumber": "0x1113fa8",
          "transactionHash": "0x5a8bf1fa4f2d2956ff2d5cac5c8e7336b4364a8b91ff5dff30136123d84b3c98",
          "transactionIndex": "0x7",
          "logIndex": "0x8",
          "removed": false
        },
        {
          "address": "0xc07d0290997f5053923e17b03ab871e9575e5e36",
          "topics": [
            "0x85496b760a4b7f8d66384b9df21b381f5d1b1e79f229a47aaf4c232edc2fe59a",
            "0x58bb9c5aaa264e773e6ccb0447c96f3ea9a7453583a1e907d285c53e87763c0e",
            "0x00000000000000000000000012b2434a1022d5787bf06056f2885fe35de62bf8"
          ],
          "data": "0x0000000000000000000000000000000000000000000000000000000000009ce10000000000000000000000000000000000000000000000008ac7230489e800000000000000000000000000000000000000000000000000008ac7230489e80000",
          "blockHash": "0x4c87374adcf59b59b54a9e75a078ca8cb18fdd6a34ca0edcc9b59ce91cd03983",
          "blockNumber": "0x1113fa8",
          "transactionHash": "0x5a8bf1fa4f2d2956ff2d5cac5c8e7336b4364a8b91ff5dff30136123d84b3c98",
          "transactionIndex": "0x7",
          "logIndex": "0x9",
          "removed": false
        }
      ],
      "logsBloom": "0x00000000000100000000000000000000000000000000000000000000000000000000000000000200200000000000000000000000000000000000000000000000000002000000000000000028200000000000000000000000000000020000000000000000020000008200000000000800000000000000000000000010000000000000000000000020000000280000000000000000000000000000000020000010000000008000000000100000000000000000000400400000000440000000000080000002000000020000000080000000000000000000000000000000000020000000040000000000000000000008002000000000008000000000000000000000",
      "type": "0x2",
      "transactionHash": "0x5a8bf1fa4f2d2956ff2d5cac5c8e7336b4364a8b91ff5dff30136123d84b3c98",
      "transactionIndex": "0x7",
      "blockHash": "0x4c87374adcf59b59b54a9e75a078ca8cb18fdd6a34ca0edcc9b59ce91cd03983",
      "blockNumber": "0x1113fa8",
      "gasUsed": "0x37a57",
      "effectiveGasPrice": "0xe9541",
      "from": "0x12b2434a1022d5787bf06056f2885fe35de62bf8",
      "to": "0xc07d0290997f5053923e17b03ab871e9575e5e36",
      "contractAddress": null,
      "l1BaseFeeScalar": "0x44d",
      "l1BlobBaseFee": "0x1",
      "l1BlobBaseFeeScalar": "0xa118b",
      "l1Fee": "0x107360412",
      "l1GasPrice": "0x57852110",
      "l1GasUsed": "0xaab"
    }
  ],
  "libraries": [],
  "pending": [],
  "returns": {},
  "timestamp": 1731583538,
  "chain": 84532,
  "commit": "5aade63"
}