{
  "transactions": [
    {
      "hash": "0x19f933944509c5a05337c9b5123e380bce142dac44545cc70d98ea316ec8cafd",
      "transactionType": "CALL",
      "contractName": null,
      "contractAddress": "0xc07d0290997f5053923e17b03ab871e9575e5e36",
      "function": "send((uint32,bytes32,uint256,uint256,bytes,bytes,bytes),(uint256,uint256),address)",
      "arguments": [
        "(40232, 0x00000000000000000000000012b2434a1022d5787bf06056f2885fe35de62bf8, 10000000000000000000, 9000000000000000000, 0x0003010011010000000000000000000000000000fde8, 0x, 0x)",
        "(62290885807440, 0)",
        "0x12B2434a1022d5787bf06056F2885Fe35De62Bf8"
      ],
      "transaction": {
        "from": "0x12b2434a1022d5787bf06056f2885fe35de62bf8",
        "to": "0xc07d0290997f5053923e17b03ab871e9575e5e36",
        "gas": "0x529ec",
        "value": "0x38a73a1f0d50",
        "input": "0xc7c7f5b30000000000000000000000000000000000000000000000000000000000000080000000000000000000000000000000000000000000000000000038a73a1f0d50000000000000000000000000000000000000000000000000000000000000000000000000000000000000000012b2434a1022d5787bf06056f2885fe35de62bf80000000000000000000000000000000000000000000000000000000000009d2800000000000000000000000012b2434a1022d5787bf06056f2885fe35de62bf80000000000000000000000000000000000000000000000008ac7230489e800000000000000000000000000000000000000000000000000007ce66c50e284000000000000000000000000000000000000000000000000000000000000000000e00000000000000000000000000000000000000000000000000000000000000120000000000000000000000000000000000000000000000000000000000000014000000000000000000000000000000000000000000000000000000000000000160003010011010000000000000000000000000000fde80000000000000000000000000000000000000000000000000000000000000000000000000000000000000000000000000000000000000000000000000000000000000000000000000000",
        "nonce": "0x17c",
        "chainId": "0x14a34"
      },
      "additionalContracts": [],
      "isFixedGasLimit": false
    }
  ],
  "receipts": [
    {
      "status": "0x1",
      "cumulativeGasUsed": "0xa70a8",
      "logs": [
        {
          "address": "0xc07d0290997f5053923e17b03ab871e9575e5e36",
          "topics": [
            "0xddf252ad1be2c89b69c2b068fc378daa952ba7f163c4a11628f55a4df523b3ef",
            "0x00000000000000000000000012b2434a1022d5787bf06056f2885fe35de62bf8",
            "0x0000000000000000000000000000000000000000000000000000000000000000"
          ],
          "data": "0x0000000000000000000000000000000000000000000000008ac7230489e80000",
          "blockHash": "0x167f8cf3a11d9355b8563d26036a1bf96cebc3eaffd13f8c8579dfc2af7235b0",
          "blockNumber": "0x1113bc9",
          "transactionHash": "0x19f933944509c5a05337c9b5123e380bce142dac44545cc70d98ea316ec8cafd",
          "transactionIndex": "0x5",
          "logIndex": "0x7",
          "removed": false
        },
        {
          "address": "0xc1868e054425d378095a003ecba3823a5d0135c9",
          "topics": [
            "0x61ed099e74a97a1d7f8bb0952a88ca8b7b8ebd00c126ea04671f92a81213318a"
          ],
          "data": "0x0000000000000000000000008a3d588d9f6ac041476b094f97ff94ec30169d3d000000000000000000000000000000000000000000000000000035e07961ea64",
          "blockHash": "0x167f8cf3a11d9355b8563d26036a1bf96cebc3eaffd13f8c8579dfc2af7235b0",
          "blockNumber": "0x1113bc9",
          "transactionHash": "0x19f933944509c5a05337c9b5123e380bce142dac44545cc70d98ea316ec8cafd",
          "transactionIndex": "0x5",
          "logIndex": "0x8",
          "removed": false
        },
        {
          "address": "0xc1868e054425d378095a003ecba3823a5d0135c9",
          "topics": [
            "0x07ea52d82345d6e838192107d8fd7123d9c2ec8e916cd0aad13fd2b60db24644"
          ],
          "data": "0x000000000000000000000000000000000000000000000000000000000000006000000000000000000000000000000000000000000000000000000000000000a000000000000000000000000000000000000000000000000000000000000000c00000000000000000000000000000000000000000000000000000000000000001000000000000000000000000e1a12515f9ab2764b887bf60b923ca494ebbb2d600000000000000000000000000000000000000000000000000000000000000000000000000000000000000000000000000000000000000000000000000000001000000000000000000000000000000000000000000000000000002c6c0bd22ec",
          "blockHash": "0x167f8cf3a11d9355b8563d26036a1bf96cebc3eaffd13f8c8579dfc2af7235b0",
          "blockNumber": "0x1113bc9",
          "transactionHash": "0x19f933944509c5a05337c9b5123e380bce142dac44545cc70d98ea316ec8cafd",
          "transactionIndex": "0x5",
          "logIndex": "0x9",
          "removed": false
        },
        {
          "address": "0x6edce65403992e310a62460808c4b910d972f10f",
          "topics": [
            "0x1ab700d4ced0c005b164c0f789fd09fcbb0156d4c2041b8a3bfbcd961cd1567f"
          ],
          "data": "0x00000000000000000000000000000000000000000000000000000000000000600000000000000000000000000000000000000000000000000000000000000120000000000000000000000000c1868e054425d378095a003ecba3823a5d0135c9000000000000000000000000000000000000000000000000000000000000009901000000000000000100009d35000000000000000000000000c07d0290997f5053923e17b03ab871e9575e5e3600009d28000000000000000000000000d47bdd29c984722b229141de99c80c210de04e026956d778670de7671d110686edbb7e0a10edb2239716aded31563db15322728500000000000000000000000012b2434a1022d5787bf06056f2885fe35de62bf800000000009896800000000000000000000000000000000000000000000000000000000000000000000000000000160003010011010000000000000000000000000000fde800000000000000000000",
          "blockHash": "0x167f8cf3a11d9355b8563d26036a1bf96cebc3eaffd13f8c8579dfc2af7235b0",
          "blockNumber": "0x1113bc9",
          "transactionHash": "0x19f933944509c5a05337c9b5123e380bce142dac44545cc70d98ea316ec8cafd",
          "transactionIndex": "0x5",
          "logIndex": "0xa",
          "removed": false
        },
        {
          "address": "0xc07d0290997f5053923e17b03ab871e9575e5e36",
          "topics": [
            "0x85496b760a4b7f8d66384b9df21b381f5d1b1e79f229a47aaf4c232edc2fe59a",
            "0x6956d778670de7671d110686edbb7e0a10edb2239716aded31563db153227285",
            "0x00000000000000000000000012b2434a1022d5787bf06056f2885fe35de62bf8"
          ],
          "data": "0x0000000000000000000000000000000000000000000000000000000000009d280000000000000000000000000000000000000000000000008ac7230489e800000000000000000000000000000000000000000000000000008ac7230489e80000",
          "blockHash": "0x167f8cf3a11d9355b8563d26036a1bf96cebc3eaffd13f8c8579dfc2af7235b0",
          "blockNumber": "0x1113bc9",
          "transactionHash": "0x19f933944509c5a05337c9b5123e380bce142dac44545cc70d98ea316ec8cafd",
          "transactionIndex": "0x5",
          "logIndex": "0xb",
          "removed": false
        }
      ],
      "logsBloom": "0x00000000000100000001000000000000000000001000000000000000000000040000000000000200200000000000000000000000000000000000000000000000000002000000000000000008200000000000000000000000000000020000000000000000020000008200000000000800000000000000000000000010000000000000000000000020000000280000000000000000000000000000000020000010000000008000000000100000000000000000000400400000000440000000000080000002000000000000000080000000000000000000000000000000000020000000040000000000000000000000002000000000008000000000000000000000",
      "type": "0x2",
      "transactionHash": "0x19f933944509c5a05337c9b5123e380bce142dac44545cc70d98ea316ec8cafd",
      "transactionIndex": "0x5",
      "blockHash": "0x167f8cf3a11d9355b8563d26036a1bf96cebc3eaffd13f8c8579dfc2af7235b0",
      "blockNumber": "0x1113bc9",
      "gasUsed": "0x3bd0d",
      "effectiveGasPrice": "0x187a1",
      "from": "0x12b2434a1022d5787bf06056f2885fe35de62bf8",
      "to": "0xc07d0290997f5053923e17b03ab871e9575e5e36",
      "contractAddress": null,
      "l1BaseFeeScalar": "0x44d",
      "l1BlobBaseFee": "0x1",
      "l1BlobBaseFeeScalar": "0xa118b",
      "l1Fee": "0x66007e17",
      "l1GasPrice": "0x21966107",
      "l1GasUsed": "0xac6"
    }
  ],
  "libraries": [],
  "pending": [],
  "returns": {},
  "timestamp": 1731581555,
  "chain": 84532,
  "commit": "5aade63"
}