{
  "transactions": [
    {
      "hash": "0x7b70bc864b9caab5c54df6ee2c262ddc354c0a81ffede848f6b104f55b888dec",
      "transactionType": "CALL",
      "contractName": null,
      "contractAddress": "0xd47bdd29c984722b229141de99c80c210de04e02",
      "function": "setPeer(uint32,bytes32)",
      "arguments": [
        "40245",
        "0x000000000000000000000000c07d0290997f5053923e17b03ab871e9575e5e36"
      ],
      "transaction": {
        "from": "0x12b2434a1022d5787bf06056f2885fe35de62bf8",
        "to": "0xd47bdd29c984722b229141de99c80c210de04e02",
        "gas": "0x1018c",
        "value": "0x0",
        "input": "0x3400288b0000000000000000000000000000000000000000000000000000000000009d35000000000000000000000000c07d0290997f5053923e17b03ab871e9575e5e36",
        "nonce": "0x16c",
        "chainId": "0xaa37dc"
      },
      "additionalContracts": [],
      "isFixedGasLimit": false
    }
  ],
  "receipts": [
    {
      "status": "0x1",
      "cumulativeGasUsed": "0x155e92",
      "logs": [
        {
          "address": "0xd47bdd29c984722b229141de99c80c210de04e02",
          "topics": [
            "0x238399d427b947898edb290f5ff0f9109849b1c3ba196a42e35f00c50a54b98b"
          ],
          "data": "0x0000000000000000000000000000000000000000000000000000000000009d35000000000000000000000000c07d0290997f5053923e17b03ab871e9575e5e36",
          "blockHash": "0x346f6c5392633240c693cec41bf69dd354eb032285cdad80908cd4c281d562c6",
          "blockNumber": "0x12f75d5",
          "transactionHash": "0x7b70bc864b9caab5c54df6ee2c262ddc354c0a81ffede848f6b104f55b888dec",
          "transactionIndex": "0x3",
          "logIndex": "0xe",
          "removed": false
        }
      ],
      "logsBloom": "0x00000000000000000000000000000000000000000000000000000000000000000000000000000000000000000000000000000000000000000800000000000000000000000000000000000000000000000000000000000000000000000000008000040000000000000000000000000000000000000000000000000000000000000000000000000000000000000000000000000000000000000000000000000000000000000000000000000000000000000000000000000000000002000000000000000000000004000000000000000000000000000000000000040000000000000000000000000000000000000000000000000000000000000000000000000000",
      "type": "0x2",
      "transactionHash": "0x7b70bc864b9caab5c54df6ee2c262ddc354c0a81ffede848f6b104f55b888dec",
      "transactionIndex": "0x3",
      "blockHash": "0x346f6c5392633240c693cec41bf69dd354eb032285cdad80908cd4c281d562c6",
      "blockNumber": "0x12f75d5",
      "gasUsed": "0xba76",
      "effectiveGasPrice": "0xf6a51",
      "from": "0x12b2434a1022d5787bf06056f2885fe35de62bf8",
      "to": "0xd47bdd29c984722b229141de99c80c210de04e02",
      "contractAddress": null,
      "l1BaseFeeScalar": "0x1db0",
      "l1BlobBaseFee": "0x1",
      "l1BlobBaseFeeScalar": "0xd2730",
      "l1Fee": "0x3d3b24711",
      "l1GasPrice": "0x50912fec",
      "l1GasUsed": "0x640"
    }
  ],
  "libraries": [],
  "pending": [],
  "returns": {},
  "timestamp": 1731577687,
  "chain": 11155420,
  "commit": "5c7c028"
}