{
  "transactions": [
    {
      "hash": "0x3193739d2112e6406e3fae6941a035e482a56d58edfa925540d4aa4f4865fc54",
      "transactionType": "CALL",
      "contractName": null,
      "contractAddress": "0xddd2e2a0434cb9b11bc778908bc9335f616f6362",
      "function": "setPeer(uint32,bytes32)",
      "arguments": [
        "40245",
        "0x0000000000000000000000009bd90ac5435a793333c2f1e59a6e7e5dbad0afea"
      ],
      "transaction": {
        "from": "0x12b2434a1022d5787bf06056f2885fe35de62bf8",
        "to": "0xddd2e2a0434cb9b11bc778908bc9335f616f6362",
        "gas": "0x1018c",
        "value": "0x0",
        "input": "0x3400288b0000000000000000000000000000000000000000000000000000000000009d350000000000000000000000009bd90ac5435a793333c2f1e59a6e7e5dbad0afea",
        "nonce": "0x16e",
        "chainId": "0xaa37dc"
      },
      "additionalContracts": [],
      "isFixedGasLimit": false
    }
  ],
  "receipts": [
    {
      "status": "0x1",
      "cumulativeGasUsed": "0x1afd86",
      "logs": [
        {
          "address": "0xddd2e2a0434cb9b11bc778908bc9335f616f6362",
          "topics": [
            "0x238399d427b947898edb290f5ff0f9109849b1c3ba196a42e35f00c50a54b98b"
          ],
          "data": "0x0000000000000000000000000000000000000000000000000000000000009d350000000000000000000000009bd90ac5435a793333c2f1e59a6e7e5dbad0afea",
          "blockHash": "0xaca4cb0a5e21cea482b7076f8295b6a1082db17224317b8629b7e65e6b76cb4b",
          "blockNumber": "0x13438e2",
          "transactionHash": "0x3193739d2112e6406e3fae6941a035e482a56d58edfa925540d4aa4f4865fc54",
          "transactionIndex": "0x6",
          "logIndex": "0x19",
          "removed": false
        }
      ],
      "logsBloom": "0x00000000000001080000000000000000000020000000000000000000000000000000000000000000000000000000000000000000000000000800000000000000000000000000000000000000000000000000000000000000000000000000000000000000000000000000000000000000000000000000000000000000000000000000000000000000000000000000000000000000000000000000000000000000000000000000000000000000000000000000000000000000000002000000000000000000000000000000000000000000000000000000000000040000000000000000000000000000000000000000000000000000000000000000000000000000",
      "type": "0x2",
      "transactionHash": "0x3193739d2112e6406e3fae6941a035e482a56d58edfa925540d4aa4f4865fc54",
      "transactionIndex": "0x6",
      "blockHash": "0xaca4cb0a5e21cea482b7076f8295b6a1082db17224317b8629b7e65e6b76cb4b",
      "blockNumber": "0x13438e2",
      "gasUsed": "0xba76",
      "effectiveGasPrice": "0xf433f",
      "from": "0x12b2434a1022d5787bf06056f2885fe35de62bf8",
      "to": "0xddd2e2a0434cb9b11bc778908bc9335f616f6362",
      "contractAddress": null,
      "l1BaseFeeScalar": "0x1db0",
      "l1BlobBaseFee": "0x1",
      "l1BlobBaseFeeScalar": "0xd2730",
      "l1Fee": "0xd348b08fed",
      "l1GasPrice": "0x11601541b4",
      "l1GasUsed": "0x640"
    }
  ],
  "libraries": [],
  "pending": [],
  "returns": {},
  "timestamp": 1732201842,
  "chain": 11155420,
  "commit": "34700ed"
}