{
  "transactions": [
    {
      "hash": "0x6e39d7648db39ac457cc8d82718e44d265069d68deed90bad3dc624b4de06176",
      "transactionType": "CALL",
      "contractName": null,
      "contractAddress": "0xbb9ac7b4973ec691be01dd4b0b7659a77a53fe23",
      "function": "setPeer(uint32,bytes32)",
      "arguments": [
        "40245",
        "0x0000000000000000000000009bd90ac5435a793333c2f1e59a6e7e5dbad0afea"
      ],
      "transaction": {
        "from": "0x12b2434a1022d5787bf06056f2885fe35de62bf8",
        "to": "0xbb9ac7b4973ec691be01dd4b0b7659a77a53fe23",
        "gas": "0xaf01",
        "value": "0x0",
        "input": "0x3400288b0000000000000000000000000000000000000000000000000000000000009d350000000000000000000000009bd90ac5435a793333c2f1e59a6e7e5dbad0afea",
        "nonce": "0x86",
        "chainId": "0xaa36a7"
      },
      "additionalContracts": [],
      "isFixedGasLimit": false
    }
  ],
  "receipts": [
    {
      "status": "0x1",
      "cumulativeGasUsed": "0x167870f",
      "logs": [
        {
          "address": "0xbb9ac7b4973ec691be01dd4b0b7659a77a53fe23",
          "topics": [
            "0x238399d427b947898edb290f5ff0f9109849b1c3ba196a42e35f00c50a54b98b"
          ],
          "data": "0x0000000000000000000000000000000000000000000000000000000000009d350000000000000000000000009bd90ac5435a793333c2f1e59a6e7e5dbad0afea",
          "blockHash": "0x1345a237644d73ebb8770303fe200f822bde383cc5e599adc3a47cea4305931f",
          "blockNumber": "0x6cb184",
          "transactionHash": "0x6e39d7648db39ac457cc8d82718e44d265069d68deed90bad3dc624b4de06176",
          "transactionIndex": "0xd0",
          "logIndex": "0xdd",
          "removed": false
        }
      ],
      "logsBloom": "0x00000000000000000000000000000001000000000000000000000000000000000000000000000001000000000000000000000000000000000800000000000000000000000000000000000000000000000000000000000000000000000000000000000000000000000000000000000000000000000000000000000000000000000010000000000000000000000000000000000000000000000000000000000000000000000000000000000000000000000000000000000000000002000000000000000000000000000000000000000000000000000000000000040000000000000000000000000000000000000000000000000000000000000000000000000000",
      "type": "0x2",
      "transactionHash": "0x6e39d7648db39ac457cc8d82718e44d265069d68deed90bad3dc624b4de06176",
      "transactionIndex": "0xd0",
      "blockHash": "0x1345a237644d73ebb8770303fe200f822bde383cc5e599adc3a47cea4305931f",
      "blockNumber": "0x6cb184",
      "gasUsed": "0x77aa",
      "effectiveGasPrice": "0xf012d4c48",
      "from": "0x12b2434a1022d5787bf06056f2885fe35de62bf8",
      "to": "0xbb9ac7b4973ec691be01dd4b0b7659a77a53fe23",
      "contractAddress": null
    }
  ],
  "libraries": [],
  "pending": [],
  "returns": {},
  "timestamp": 1732201789,
  "chain": 11155111,
  "commit": "34700ed"
}