{
  "transactions": [
    {
      "hash": "0x6f7b6e775ab91cffbd4ea8069e6e24028ba26b65a6ca50788b03e82f63067408",
      "transactionType": "CALL",
      "contractName": null,
      "contractAddress": "0xbb9ac7b4973ec691be01dd4b0b7659a77a53fe23",
      "function": "setPeer(uint32,bytes32)",
      "arguments": [
        "40245",
        "0x0000000000000000000000000f16525440eefc7c1d10af8171ec2618a7b134bb"
      ],
      "transaction": {
        "from": "0x12b2434a1022d5787bf06056f2885fe35de62bf8",
        "to": "0xbb9ac7b4973ec691be01dd4b0b7659a77a53fe23",
        "gas": "0x1018c",
        "value": "0x0",
        "input": "0x3400288b0000000000000000000000000000000000000000000000000000000000009d350000000000000000000000000f16525440eefc7c1d10af8171ec2618a7b134bb",
        "nonce": "0x85",
        "chainId": "0xaa36a7"
      },
      "additionalContracts": [],
      "isFixedGasLimit": false
    }
  ],
  "receipts": [
    {
      "status": "0x1",
      "cumulativeGasUsed": "0xf0c98f",
      "logs": [
        {
          "address": "0xbb9ac7b4973ec691be01dd4b0b7659a77a53fe23",
          "topics": [
            "0x238399d427b947898edb290f5ff0f9109849b1c3ba196a42e35f00c50a54b98b"
          ],
          "data": "0x0000000000000000000000000000000000000000000000000000000000009d350000000000000000000000000f16525440eefc7c1d10af8171ec2618a7b134bb",
          "blockHash": "0x5440bfca8eb2d91e92269435b273ea27231c6d5fc576f76280aa90b35481ea01",
          "blockNumber": "0x6c8020",
          "transactionHash": "0x6f7b6e775ab91cffbd4ea8069e6e24028ba26b65a6ca50788b03e82f63067408",
          "transactionIndex": "0x52",
          "logIndex": "0x71",
          "removed": false
        }
      ],
      "logsBloom": "0x00000000000000000000000000000001000000000000000000000000000000000000000000000001000000000000000000000000000000000800000000000000000000000000000000000000000000000000000000000000000000000000000000000000000000000000000000000000000000000000000000000000000000000010000000000000000000000000000000000000000000000000000000000000000000000000000000000000000000000000000000000000000002000000000000000000000000000000000000000000000000000000000000040000000000000000000000000000000000000000000000000000000000000000000000000000",
      "type": "0x2",
      "transactionHash": "0x6f7b6e775ab91cffbd4ea8069e6e24028ba26b65a6ca50788b03e82f63067408",
      "transactionIndex": "0x52",
      "blockHash": "0x5440bfca8eb2d91e92269435b273ea27231c6d5fc576f76280aa90b35481ea01",
      "blockNumber": "0x6c8020",
      "gasUsed": "0xba76",
      "effectiveGasPrice": "0x12f35a26d",
      "from": "0x12b2434a1022d5787bf06056f2885fe35de62bf8",
      "to": "0xbb9ac7b4973ec691be01dd4b0b7659a77a53fe23",
      "contractAddress": null
    }
  ],
  "libraries": [],
  "pending": [],
  "returns": {},
  "timestamp": 1732040257,
  "chain": 11155111,
  "commit": "7a92d07"
}