{
  "transactions": [
    {
      "hash": "0x045a2c8e60646d6e04bf865ffad1a8741be97e3527859b186155e6e690ceb514",
      "transactionType": "CALL",
      "contractName": null,
      "contractAddress": "0xe7513d67011f19da77ee02aa4908cedba26ed766",
      "function": "setPeer(uint32,bytes32)",
      "arguments": [
        "40161",
        "0x000000000000000000000000c07d0290997f5053923e17b03ab871e9575e5e36"
      ],
      "transaction": {
        "from": "0x12b2434a1022d5787bf06056f2885fe35de62bf8",
        "to": "0xe7513d67011f19da77ee02aa4908cedba26ed766",
        "gas": "0x9f02",
        "value": "0x0",
        "input": "0x3400288b0000000000000000000000000000000000000000000000000000000000009ce1000000000000000000000000c07d0290997f5053923e17b03ab871e9575e5e36",
        "nonce": "0x81",
        "chainId": "0xaa36a7"
      },
      "additionalContracts": [],
      "isFixedGasLimit": false
    }
  ],
  "receipts": [
    {
      "status": "0x1",
      "cumulativeGasUsed": "0xf22902",
      "logs": [
        {
          "address": "0xe7513d67011f19da77ee02aa4908cedba26ed766",
          "topics": [
            "0x238399d427b947898edb290f5ff0f9109849b1c3ba196a42e35f00c50a54b98b"
          ],
          "data": "0x0000000000000000000000000000000000000000000000000000000000009ce1000000000000000000000000c07d0290997f5053923e17b03ab871e9575e5e36",
          "blockHash": "0x2c67e2bea1da839d3ffb9dd9214cde432e89d16a521847744c3b0767da1b5dbf",
          "blockNumber": "0x6bf43c",
          "transactionHash": "0x045a2c8e60646d6e04bf865ffad1a8741be97e3527859b186155e6e690ceb514",
          "transactionIndex": "0x3c",
          "logIndex": "0x46",
          "removed": false
        }
      ],
      "logsBloom": "0x00000000000000000000000000000000000000000000000000000000000000000000000000000000000000000000000000000000000000000800000000000000080000040000000000000080000000000000000000000000000000000000000000000000000000000000000000000000000000000000000000000000000000000000000000000000000000000000000000000000000000000000000000000000000000000000000000000000000000000000000000000000000002000000000000000000000000000000000000000000000000000000000000040000000000000000000000000000000000000000000000000000000000000000000000000000",
      "type": "0x2",
      "transactionHash": "0x045a2c8e60646d6e04bf865ffad1a8741be97e3527859b186155e6e690ceb514",
      "transactionIndex": "0x3c",
      "blockHash": "0x2c67e2bea1da839d3ffb9dd9214cde432e89d16a521847744c3b0767da1b5dbf",
      "blockNumber": "0x6bf43c",
      "gasUsed": "0x6cba",
      "effectiveGasPrice": "0x2470851e",
      "from": "0x12b2434a1022d5787bf06056f2885fe35de62bf8",
      "to": "0xe7513d67011f19da77ee02aa4908cedba26ed766",
      "contractAddress": null
    }
  ],
  "libraries": [],
  "pending": [],
  "returns": {},
  "timestamp": 1731582673,
  "chain": 11155111,
  "commit": "5aade63"
}