{
  "transactions": [
    {
      "hash": "0x3526f4680f7ad74fea4eed5c3aa7dde812864293b2d634a1a2224a7b8296cbe5",
      "transactionType": "CALL",
      "contractName": null,
      "contractAddress": "0xe7513d67011f19da77ee02aa4908cedba26ed766",
      "function": "setPeer(uint32,bytes32)",
      "arguments": [
        "40245",
        "0x000000000000000000000000c07d0290997f5053923e17b03ab871e9575e5e36"
      ],
      "transaction": {
        "from": "0x12b2434a1022d5787bf06056f2885fe35de62bf8",
        "to": "0xe7513d67011f19da77ee02aa4908cedba26ed766",
        "gas": "0x1018c",
        "value": "0x0",
        "input": "0x3400288b0000000000000000000000000000000000000000000000000000000000009d35000000000000000000000000c07d0290997f5053923e17b03ab871e9575e5e36",
        "nonce": "0x83",
        "chainId": "0xaa36a7"
      },
      "additionalContracts": [],
      "isFixedGasLimit": false
    }
  ],
  "receipts": [
    {
      "status": "0x1",
      "cumulativeGasUsed": "0x10c1c7d",
      "logs": [
        {
          "address": "0xe7513d67011f19da77ee02aa4908cedba26ed766",
          "topics": [
            "0x238399d427b947898edb290f5ff0f9109849b1c3ba196a42e35f00c50a54b98b"
          ],
          "data": "0x0000000000000000000000000000000000000000000000000000000000009d35000000000000000000000000c07d0290997f5053923e17b03ab871e9575e5e36",
          "blockHash": "0x5ce56e6710b856b477e3193bd82de2e7320f34582171d5af618fa70a7565d8d2",
          "blockNumber": "0x6bf463",
          "transactionHash": "0x3526f4680f7ad74fea4eed5c3aa7dde812864293b2d634a1a2224a7b8296cbe5",
          "transactionIndex": "0x42",
          "logIndex": "0x75",
          "removed": false
        }
      ],
      "logsBloom": "0x00000000000000000000000000000000000000000000000000000000000000000000000000000000000000000000000000000000000000000800000000000000080000040000000000000080000000000000000000000000000000000000000000000000000000000000000000000000000000000000000000000000000000000000000000000000000000000000000000000000000000000000000000000000000000000000000000000000000000000000000000000000000002000000000000000000000000000000000000000000000000000000000000040000000000000000000000000000000000000000000000000000000000000000000000000000",
      "type": "0x2",
      "transactionHash": "0x3526f4680f7ad74fea4eed5c3aa7dde812864293b2d634a1a2224a7b8296cbe5",
      "transactionIndex": "0x42",
      "blockHash": "0x5ce56e6710b856b477e3193bd82de2e7320f34582171d5af618fa70a7565d8d2",
      "blockNumber": "0x6bf463",
      "gasUsed": "0xba76",
      "effectiveGasPrice": "0x5d7b0210",
      "from": "0x12b2434a1022d5787bf06056f2885fe35de62bf8",
      "to": "0xe7513d67011f19da77ee02aa4908cedba26ed766",
      "contractAddress": null
    }
  ],
  "libraries": [],
  "pending": [],
  "returns": {},
  "timestamp": 1731583189,
  "chain": 11155111,
  "commit": "5aade63"
}