{
  "transactions": [
    {
      "hash": "0xc705370e301a71c4026f79c3e2d62a5eca59c25d84f3571d53e7d03d2d4c97d9",
      "transactionType": "CALL",
      "contractName": null,
      "contractAddress": "0xe7513d67011f19da77ee02aa4908cedba26ed766",
      "function": "setPeer(uint32,bytes32)",
      "arguments": [
        "40161",
        "0x000000000000000000000000c07d0290997f5053923e17b03ab871e9575e5e36"
      ],
      "transaction": {
        "from": "0x12b2434a1022d5787bf06056f2885fe35de62bf8",
        "to": "0xe7513d67011f19da77ee02aa4908cedba26ed766",
        "gas": "0x1018c",
        "value": "0x0",
        "input": "0x3400288b0000000000000000000000000000000000000000000000000000000000009ce1000000000000000000000000c07d0290997f5053923e17b03ab871e9575e5e36",
        "nonce": "0x80",
        "chainId": "0xaa36a7"
      },
      "additionalContracts": [],
      "isFixedGasLimit": false
    }
  ],
  "receipts": [
    {
      "status": "0x1",
      "cumulativeGasUsed": "0xebd1a0",
      "logs": [
        {
          "address": "0xe7513d67011f19da77ee02aa4908cedba26ed766",
          "topics": [
            "0x238399d427b947898edb290f5ff0f9109849b1c3ba196a42e35f00c50a54b98b"
          ],
          "data": "0x0000000000000000000000000000000000000000000000000000000000009ce1000000000000000000000000c07d0290997f5053923e17b03ab871e9575e5e36",
          "blockHash": "0x136a53b10ea0444e7c8eab2a836f52641d32f3b7e730584089712f475a2758de",
          "blockNumber": "0x6bf428",
          "transactionHash": "0xc705370e301a71c4026f79c3e2d62a5eca59c25d84f3571d53e7d03d2d4c97d9",
          "transactionIndex": "0x4c",
          "logIndex": "0x6c",
          "removed": false
        }
      ],
      "logsBloom": "0x00000000000000000000000000000000000000000000000000000000000000000000000000000000000000000000000000000000000000000800000000000000080000040000000000000080000000000000000000000000000000000000000000000000000000000000000000000000000000000000000000000000000000000000000000000000000000000000000000000000000000000000000000000000000000000000000000000000000000000000000000000000000002000000000000000000000000000000000000000000000000000000000000040000000000000000000000000000000000000000000000000000000000000000000000000000",
      "type": "0x2",
      "transactionHash": "0xc705370e301a71c4026f79c3e2d62a5eca59c25d84f3571d53e7d03d2d4c97d9",
      "transactionIndex": "0x4c",
      "blockHash": "0x136a53b10ea0444e7c8eab2a836f52641d32f3b7e730584089712f475a2758de",
      "blockNumber": "0x6bf428",
      "gasUsed": "0xba76",
      "effectiveGasPrice": "0x1c0c73d1",
      "from": "0x12b2434a1022d5787bf06056f2885fe35de62bf8",
      "to": "0xe7513d67011f19da77ee02aa4908cedba26ed766",
      "contractAddress": null
    }
  ],
  "libraries": [],
  "pending": [],
  "returns": {},
  "timestamp": 1731582420,
  "chain": 11155111,
  "commit": "5aade63"
}