{
  "transactions": [
    {
      "hash": "0x6f421029e576c4649cf68b26ed41d1a4fe41297351eccb6d753f2abd15fda068",
      "transactionType": "CALL",
      "contractName": null,
      "contractAddress": "0x62e5634044c1b823995d1f0fa5d9b7dc3e671904",
      "function": "setPeer(uint32,bytes32)",
      "arguments": [
        "40232",
        "0x00000000000000000000000042fb975a20dcf4ba06b0c41615dc1bd94036f6de"
      ],
      "transaction": {
        "from": "0x12b2434a1022d5787bf06056f2885fe35de62bf8",
        "to": "0x62e5634044c1b823995d1f0fa5d9b7dc3e671904",
        "gas": "0x1018c",
        "value": "0x0",
        "input": "0x3400288b0000000000000000000000000000000000000000000000000000000000009d2800000000000000000000000042fb975a20dcf4ba06b0c41615dc1bd94036f6de",
        "nonce": "0x176",
        "chainId": "0x14a34"
      },
      "additionalContracts": [],
      "isFixedGasLimit": false
    }
  ],
  "receipts": [
    {
      "status": "0x1",
      "cumulativeGasUsed": "0xbd2ce",
      "logs": [
        {
          "address": "0x62e5634044c1b823995d1f0fa5d9b7dc3e671904",
          "topics": [
            "0x238399d427b947898edb290f5ff0f9109849b1c3ba196a42e35f00c50a54b98b"
          ],
          "data": "0x0000000000000000000000000000000000000000000000000000000000009d2800000000000000000000000042fb975a20dcf4ba06b0c41615dc1bd94036f6de",
          "blockHash": "0xad238ec1ecc97347d89dc614681b140f1698bdbf303ec16a211272f61728323e",
          "blockNumber": "0x10f6681",
          "transactionHash": "0x6f421029e576c4649cf68b26ed41d1a4fe41297351eccb6d753f2abd15fda068",
          "transactionIndex": "0x6",
          "logIndex": "0x4",
          "removed": false
        }
      ],
      "logsBloom": "0x00000000000000000000000000000000000000000000000000000000000000000000000000000000000000000000000000000000000000000800000000000000000000000000000000000000000000000000000000000000020000000000000000000000000000000000000000000000000000000000000000000000000000000000000000000000000000000000000000000000000000000000000000000000000000000000000001000000000000000000000000000000010002000000000000000000000000000000000000000000000000000000000000040000000000000000000000000000000000000000000000000000000000000000000000000000",
      "type": "0x2",
      "transactionHash": "0x6f421029e576c4649cf68b26ed41d1a4fe41297351eccb6d753f2abd15fda068",
      "transactionIndex": "0x6",
      "blockHash": "0xad238ec1ecc97347d89dc614681b140f1698bdbf303ec16a211272f61728323e",
      "blockNumber": "0x10f6681",
      "gasUsed": "0xba76",
      "effectiveGasPrice": "0x91392",
      "from": "0x12b2434a1022d5787bf06056f2885fe35de62bf8",
      "to": "0x62e5634044c1b823995d1f0fa5d9b7dc3e671904",
      "contractAddress": null,
      "l1BaseFeeScalar": "0x44d",
      "l1BlobBaseFee": "0x1",
      "l1BlobBaseFeeScalar": "0xa118b",
      "l1Fee": "0x325be24b6",
      "l1GasPrice": "0x1c9647f30",
      "l1GasUsed": "0x640"
    }
  ],
  "libraries": [],
  "pending": [],
  "returns": {},
  "timestamp": 1731341287,
  "chain": 84532,
  "commit": "0d61cdc"
}