{
  "transactions": [
    {
      "hash": "0x802ef7444fc39e392949b653d3ba39bba7c6569080b94a619d0a1a798f2ffeca",
      "transactionType": "CALL",
      "contractName": null,
      "contractAddress": "0x0f16525440eefc7c1d10af8171ec2618a7b134bb",
      "function": "setPeer(uint32,bytes32)",
      "arguments": [
        "40161",
        "0x000000000000000000000000bb9ac7b4973ec691be01dd4b0b7659a77a53fe23"
      ],
      "transaction": {
        "from": "0x12b2434a1022d5787bf06056f2885fe35de62bf8",
        "to": "0x0f16525440eefc7c1d10af8171ec2618a7b134bb",
        "gas": "0x1018c",
        "value": "0x0",
        "input": "0x3400288b0000000000000000000000000000000000000000000000000000000000009ce1000000000000000000000000bb9ac7b4973ec691be01dd4b0b7659a77a53fe23",
        "nonce": "0x199",
        "chainId": "0x14a34"
      },
      "additionalContracts": [],
      "isFixedGasLimit": false
    }
  ],
  "receipts": [
    {
      "status": "0x1",
      "cumulativeGasUsed": "0x57dc4",
      "logs": [
        {
          "address": "0x0f16525440eefc7c1d10af8171ec2618a7b134bb",
          "topics": [
            "0x238399d427b947898edb290f5ff0f9109849b1c3ba196a42e35f00c50a54b98b"
          ],
          "data": "0x0000000000000000000000000000000000000000000000000000000000009ce1000000000000000000000000bb9ac7b4973ec691be01dd4b0b7659a77a53fe23",
          "blockHash": "0x8ecbb27e0bd3106c20e477ceedf36dd6e0ca5812a68525adbd3c41f0aff7bba3",
          "blockNumber": "0x114bb74",
          "transactionHash": "0x802ef7444fc39e392949b653d3ba39bba7c6569080b94a619d0a1a798f2ffeca",
          "transactionIndex": "0x4",
          "logIndex": "0x4",
          "removed": false
        }
      ],
      "logsBloom": "0x00000000000000000000000000000000000000000000000000000000000000000000000000000000000000000000000000000000000000000800000000000000000000000000000000000000000000000000000000000000000000000000000000000000000000000000000000000000000000000000000004000000000000000000000000000000000000000000000000000000000000000000000000000000000000000000000000000000000000000000000000000000000002000000000000000000000000000000000000000000000000000000040000040000000000000000000008000000000000000000000000000000000000000000000000000000",
      "type": "0x2",
      "transactionHash": "0x802ef7444fc39e392949b653d3ba39bba7c6569080b94a619d0a1a798f2ffeca",
      "transactionIndex": "0x4",
      "blockHash": "0x8ecbb27e0bd3106c20e477ceedf36dd6e0ca5812a68525adbd3c41f0aff7bba3",
      "blockNumber": "0x114bb74",
      "gasUsed": "0xba76",
      "effectiveGasPrice": "0xf08a8",
      "from": "0x12b2434a1022d5787bf06056f2885fe35de62bf8",
      "to": "0x0f16525440eefc7c1d10af8171ec2618a7b134bb",
      "contractAddress": null,
      "l1BaseFeeScalar": "0x44d",
      "l1BlobBaseFee": "0x1",
      "l1BlobBaseFeeScalar": "0xa118b",
      "l1Fee": "0x286a83240",
      "l1GasPrice": "0x16f15c56b",
      "l1GasUsed": "0x640"
    }
  ],
  "libraries": [],
  "pending": [],
  "returns": {},
  "timestamp": 1732040136,
  "chain": 84532,
  "commit": "7a92d07"
}