{
  "transactions": [
    {
      "hash": "0xc3c84da07b33d5520f849028b2f6838a65712a663a21bf22ec67a678300a4c37",
      "transactionType": "CALL",
      "contractName": null,
      "contractAddress": "0x9bd90ac5435a793333c2f1e59a6e7e5dbad0afea",
      "function": "setPeer(uint32,bytes32)",
      "arguments": [
        "40232",
        "0x000000000000000000000000ddd2e2a0434cb9b11bc778908bc9335f616f6362"
      ],
      "transaction": {
        "from": "0x12b2434a1022d5787bf06056f2885fe35de62bf8",
        "to": "0x9bd90ac5435a793333c2f1e59a6e7e5dbad0afea",
        "gas": "0x1018c",
        "value": "0x0",
        "input": "0x3400288b0000000000000000000000000000000000000000000000000000000000009d28000000000000000000000000ddd2e2a0434cb9b11bc778908bc9335f616f6362",
        "nonce": "0x1a6",
        "chainId": "0x14a34"
      },
      "additionalContracts": [],
      "isFixedGasLimit": false
    }
  ],
  "receipts": [
    {
      "status": "0x1",
      "cumulativeGasUsed": "0x165b5",
      "logs": [
        {
          "address": "0x9bd90ac5435a793333c2f1e59a6e7e5dbad0afea",
          "topics": [
            "0x238399d427b947898edb290f5ff0f9109849b1c3ba196a42e35f00c50a54b98b"
          ],
          "data": "0x0000000000000000000000000000000000000000000000000000000000009d28000000000000000000000000ddd2e2a0434cb9b11bc778908bc9335f616f6362",
          "blockHash": "0x525e0895bb26cf76815f2918ee737a95049f8952f4760b97cb38e8f5635e918a",
          "blockNumber": "0x115f75d",
          "transactionHash": "0xc3c84da07b33d5520f849028b2f6838a65712a663a21bf22ec67a678300a4c37",
          "transactionIndex": "0x1",
          "logIndex": "0x0",
          "removed": false
        }
      ],
      "logsBloom": "0x00000000000000000000000000000000000000000000000000000000000000000000000000000000000000000000000000000000000000000800000000000000000000000000000000002000000000000000000000000000000000000000000040000000000000000000000000000000000000000000000004000000000000000000000000000000000000000000000000000000000000000000000000000000000000000000000000000000000000000000000000000000000002000000000000000000000000000000000000000000000000000000000000040000000000000000000000000000000000000000000000000000000000000000000000000000",
      "type": "0x2",
      "transactionHash": "0xc3c84da07b33d5520f849028b2f6838a65712a663a21bf22ec67a678300a4c37",
      "transactionIndex": "0x1",
      "blockHash": "0x525e0895bb26cf76815f2918ee737a95049f8952f4760b97cb38e8f5635e918a",
      "blockNumber": "0x115f75d",
      "gasUsed": "0xba76",
      "effectiveGasPrice": "0xf434c",
      "from": "0x12b2434a1022d5787bf06056f2885fe35de62bf8",
      "to": "0x9bd90ac5435a793333c2f1e59a6e7e5dbad0afea",
      "contractAddress": null,
      "l1BaseFeeScalar": "0x44d",
      "l1BlobBaseFee": "0x1",
      "l1BlobBaseFeeScalar": "0xa118b",
      "l1Fee": "0x21943407ec",
      "l1GasPrice": "0x130fc52df9",
      "l1GasUsed": "0x640"
    }
  ],
  "libraries": [],
  "pending": [],
  "returns": {},
  "timestamp": 1732201883,
  "chain": 84532,
  "commit": "34700ed"
}