{
  "transactions": [
    {
      "hash": "0x2dfba1ae18da32833ca35edd3a13b619f6b6f8d68b8ce9002ae71c5bfff2de21",
      "transactionType": "CALL",
      "contractName": null,
      "contractAddress": "0xc07d0290997f5053923e17b03ab871e9575e5e36",
      "function": "setPeer(uint32,bytes32)",
      "arguments": [
        "40232",
        "0x000000000000000000000000d47bdd29c984722b229141de99c80c210de04e02"
      ],
      "transaction": {
        "from": "0x12b2434a1022d5787bf06056f2885fe35de62bf8",
        "to": "0xc07d0290997f5053923e17b03ab871e9575e5e36",
        "gas": "0x1018c",
        "value": "0x0",
        "input": "0x3400288b0000000000000000000000000000000000000000000000000000000000009d28000000000000000000000000d47bdd29c984722b229141de99c80c210de04e02",
        "nonce": "0x17a",
        "chainId": "0x14a34"
      },
      "additionalContracts": [],
      "isFixedGasLimit": false
    }
  ],
  "receipts": [
    {
      "status": "0x1",
      "cumulativeGasUsed": "0x1f075c",
      "logs": [
        {
          "address": "0xc07d0290997f5053923e17b03ab871e9575e5e36",
          "topics": [
            "0x238399d427b947898edb290f5ff0f9109849b1c3ba196a42e35f00c50a54b98b"
          ],
          "data": "0x0000000000000000000000000000000000000000000000000000000000009d28000000000000000000000000d47bdd29c984722b229141de99c80c210de04e02",
          "blockHash": "0x9c5aea66e6b2dcb8efd6ecbf6e5500fa595c96f284b366fa163badee6ac36326",
          "blockNumber": "0x11133fc",
          "transactionHash": "0x2dfba1ae18da32833ca35edd3a13b619f6b6f8d68b8ce9002ae71c5bfff2de21",
          "transactionIndex": "0xc",
          "logIndex": "0x26",
          "removed": false
        }
      ],
      "logsBloom": "0x00000000000100000000000000000000000000000000000000000000000000000000000000000000000000000000000000000000000000000800000000000000000000000000000000000000000000000000000000000000000000000000000000000000000000000000000000000000000000000000000000000000000000000000000000000000000000200000000000000000000000000000000020000000000000000000000000000000000000000000000000000000000002000000000000000000000000000000000000000000000000000000000000040000000000000000000000000000000000000000000000000000000000000000000000000000",
      "type": "0x2",
      "transactionHash": "0x2dfba1ae18da32833ca35edd3a13b619f6b6f8d68b8ce9002ae71c5bfff2de21",
      "transactionIndex": "0xc",
      "blockHash": "0x9c5aea66e6b2dcb8efd6ecbf6e5500fa595c96f284b366fa163badee6ac36326",
      "blockNumber": "0x11133fc",
      "gasUsed": "0xba76",
      "effectiveGasPrice": "0x36a",
      "from": "0x12b2434a1022d5787bf06056f2885fe35de62bf8",
      "to": "0xc07d0290997f5053923e17b03ab871e9575e5e36",
      "contractAddress": null,
      "l1BaseFeeScalar": "0x44d",
      "l1BlobBaseFee": "0x1",
      "l1BlobBaseFeeScalar": "0xa118b",
      "l1Fee": "0x8e79a0d1",
      "l1GasPrice": "0x50e0d449",
      "l1GasUsed": "0x640"
    }
  ],
  "libraries": [],
  "pending": [],
  "returns": {},
  "timestamp": 1731577567,
  "chain": 84532,
  "commit": "5c7c028"
}