{
  "transactions": [
    {
      "hash": "0xd33c62655557b3784b6153d41264d7eaef712cf5e0bde65ec5ee2a064d9cc7ba",
      "transactionType": "CALL",
      "contractName": null,
      "contractAddress": "0xc07d0290997f5053923e17b03ab871e9575e5e36",
      "function": "setPeer(uint32,bytes32)",
      "arguments": [
        "40161",
        "0x000000000000000000000000e7513d67011f19da77ee02aa4908cedba26ed766"
      ],
      "transaction": {
        "from": "0x12b2434a1022d5787bf06056f2885fe35de62bf8",
        "to": "0xc07d0290997f5053923e17b03ab871e9575e5e36",
        "gas": "0x1018c",
        "value": "0x0",
        "input": "0x3400288b0000000000000000000000000000000000000000000000000000000000009ce1000000000000000000000000e7513d67011f19da77ee02aa4908cedba26ed766",
        "nonce": "0x17d",
        "chainId": "0x14a34"
      },
      "additionalContracts": [],
      "isFixedGasLimit": false
    }
  ],
  "receipts": [
    {
      "status": "0x1",
      "cumulativeGasUsed": "0x1d78fe",
      "logs": [
        {
          "address": "0xc07d0290997f5053923e17b03ab871e9575e5e36",
          "topics": [
            "0x238399d427b947898edb290f5ff0f9109849b1c3ba196a42e35f00c50a54b98b"
          ],
          "data": "0x0000000000000000000000000000000000000000000000000000000000009ce1000000000000000000000000e7513d67011f19da77ee02aa4908cedba26ed766",
          "blockHash": "0x97d2e77152d330638ab47b681b8d5b9980164290077e571f127e4afdd83035ab",
          "blockNumber": "0x1113d62",
          "transactionHash": "0xd33c62655557b3784b6153d41264d7eaef712cf5e0bde65ec5ee2a064d9cc7ba",
          "transactionIndex": "0x9",
          "logIndex": "0x2e",
          "removed": false
        }
      ],
      "logsBloom": "0x00000000000100000000000000000000000000000000000000000000000000000000000000000000000000000000000000000000000000000800000000000000000000000000000000000000000000000000000000000000000000000000000000000000000000000000000000000000000000000000000000000000000000000000000000000000000000200000000000000000000000000000000020000000000000000000000000000000000000000000000000000000000002000000000000000000000000000000000000000000000000000000000000040000000000000000000000000000000000000000000000000000000000000000000000000000",
      "type": "0x2",
      "transactionHash": "0xd33c62655557b3784b6153d41264d7eaef712cf5e0bde65ec5ee2a064d9cc7ba",
      "transactionIndex": "0x9",
      "blockHash": "0x97d2e77152d330638ab47b681b8d5b9980164290077e571f127e4afdd83035ab",
      "blockNumber": "0x1113d62",
      "gasUsed": "0xba76",
      "effectiveGasPrice": "0xd5c",
      "from": "0x12b2434a1022d5787bf06056f2885fe35de62bf8",
      "to": "0xc07d0290997f5053923e17b03ab871e9575e5e36",
      "contractAddress": null,
      "l1BaseFeeScalar": "0x44d",
      "l1BlobBaseFee": "0x1",
      "l1BlobBaseFeeScalar": "0xa118b",
      "l1Fee": "0x3601cbcf",
      "l1GasPrice": "0x1ea86e34",
      "l1GasUsed": "0x640"
    }
  ],
  "libraries": [],
  "pending": [],
  "returns": {},
  "timestamp": 1731582373,
  "chain": 84532,
  "commit": "5aade63"
}