{
  "transactions": [
    {
      "hash": "0xe6748f8d65e9cc4bb5b5acf471c8b5ce321b77a1d65c384e42d1a89809d666d1",
      "transactionType": "CALL",
      "contractName": null,
      "contractAddress": "0x9bd90ac5435a793333c2f1e59a6e7e5dbad0afea",
      "function": "setPeer(uint32,bytes32)",
      "arguments": [
        "40161",
        "0x000000000000000000000000bb9ac7b4973ec691be01dd4b0b7659a77a53fe23"
      ],
      "transaction": {
        "from": "0x12b2434a1022d5787bf06056f2885fe35de62bf8",
        "to": "0x9bd90ac5435a793333c2f1e59a6e7e5dbad0afea",
        "gas": "0x1018c",
        "value": "0x0",
        "input": "0x3400288b0000000000000000000000000000000000000000000000000000000000009ce1000000000000000000000000bb9ac7b4973ec691be01dd4b0b7659a77a53fe23",
        "nonce": "0x1a5",
        "chainId": "0x14a34"
      },
      "additionalContracts": [],
      "isFixedGasLimit": false
    }
  ],
  "receipts": [
    {
      "status": "0x1",
      "cumulativeGasUsed": "0x24a329",
      "logs": [
        {
          "address": "0x9bd90ac5435a793333c2f1e59a6e7e5dbad0afea",
          "topics": [
            "0x238399d427b947898edb290f5ff0f9109849b1c3ba196a42e35f00c50a54b98b"
          ],
          "data": "0x0000000000000000000000000000000000000000000000000000000000009ce1000000000000000000000000bb9ac7b4973ec691be01dd4b0b7659a77a53fe23",
          "blockHash": "0x829342a35411c0426a6bb93ee08624e96b724450b9848dfcf8e1449de34f653d",
          "blockNumber": "0x115f702",
          "transactionHash": "0xe6748f8d65e9cc4bb5b5acf471c8b5ce321b77a1d65c384e42d1a89809d666d1",
          "transactionIndex": "0x6",
          "logIndex": "0x15",
          "removed": false
        }
      ],
      "logsBloom": "0x00000000000000000000000000000000000000000000000000000000000000000000000000000000000000000000000000000000000000000800000000000000000000000000000000002000000000000000000000000000000000000000000040000000000000000000000000000000000000000000000004000000000000000000000000000000000000000000000000000000000000000000000000000000000000000000000000000000000000000000000000000000000002000000000000000000000000000000000000000000000000000000000000040000000000000000000000000000000000000000000000000000000000000000000000000000",
      "type": "0x2",
      "transactionHash": "0xe6748f8d65e9cc4bb5b5acf471c8b5ce321b77a1d65c384e42d1a89809d666d1",
      "transactionIndex": "0x6",
      "blockHash": "0x829342a35411c0426a6bb93ee08624e96b724450b9848dfcf8e1449de34f653d",
      "blockNumber": "0x115f702",
      "gasUsed": "0xba76",
      "effectiveGasPrice": "0x532",
      "from": "0x12b2434a1022d5787bf06056f2885fe35de62bf8",
      "to": "0x9bd90ac5435a793333c2f1e59a6e7e5dbad0afea",
      "contractAddress": null,
      "l1BaseFeeScalar": "0x44d",
      "l1BlobBaseFee": "0x1",
      "l1BlobBaseFeeScalar": "0xa118b",
      "l1Fee": "0x1dc172c304",
      "l1GasPrice": "0x10e42a206f",
      "l1GasUsed": "0x640"
    }
  ],
  "libraries": [],
  "pending": [],
  "returns": {},
  "timestamp": 1732201702,
  "chain": 84532,
  "commit": "34700ed"
}